:100000000C9410050C9457050C9445060C94570558
:100010000C9457050C9457050C9457050C945705F0
:100020000C9457050C9457050C94230D0C94F60D65
:100030000C94981C0C9457050C9457050C94570578
:100040000C9457050C9457050C9457050C945705C0
:100050000C9457050C940A1D0C9457050C945705E5
:100060000C9457050C9457050C9457050C945705A0
:100070000C9457050C9457050C9457050C94570590
:100080000C9457050C9457050C9457050C94570580
:100090000C9457050C9457050C9457050C94570570
:1000A0000C9457050C9457050C94570500291E1FF6
:1000B00020212223242526272D2E2A2B141A081529
:1000C000171C180C12132F3028E3041607090A0B0B
:1000D0000D0E0F333435E1311D1B06190511103695
:1000E0003738E500E32C393A3B3C3D3E3F40414246
:1000F0004353475F6061565C5D5E57595A5B62636C
:1001000046000000000000000000000000000000A9
:1001100000000000000000000000000000000000DF
:1001200000000000000000000000000046756C6C3C
:10013000002530325820004B6579626F617264206F
:1001400073746172742E0A004B6579626F61726418
:1001500020696E69742E0A005B445D005B435D009C
:100160002C035800540020006B00650079006200E9
:100170006F00610072006400200063006F006E0079
:1001800076006500720074006500720000000E03C6
:1001900074002E006D002E006B002E000000040382
:1001A000090409028D00050100A0320904000001C4
:1001B000030101000921110100012240000705810E
:1001C0000308000A090401000103010200092111CA
:1001D000010001224D000705820308000A090402FC
:1001E000000103000000092111010001223600076F
:1001F00005830308000A0904030002030000000944
:1002000021110100012222000705840320000107BB
:100210000504032000010904040001030000000993
:100220002111010001223900070585032000011278
:1002300001100100000008EDFE126501000102003E
:100240000105010906A101050719E029E7150025A7
:1002500001950875018102050819012905950575A3
:100260000191029501750391010507190029F71500
:1002700000250195F875018102C00631FF0974A1BE
:10028000010975150026FF00952075088102097681
:10029000150026FF00952075089102C00501098010
:1002A000A101850216810026B7001A81002AB70035
:1002B000751095018100C0050C0901A10185031687
:1002C0000100269C021A01002A9C027510950181EA
:1002D00000C005010902A1010901A10005091901D8
:1002E0002905150025019505750181029501750304
:1002F00081010501093009311581257F95027508B5
:10030000810609381581257F950175088106050C40
:100310000A38021581257F950175088106C0C00540
:10032000010906A101050719E029E7150025019536
:1003300008750181029501750881010508190129D7
:100340000595057501910295017503910105071940
:100350000029FF150026FF00950675088100C0637F
:100360006F6E73756D65723A20253034580A0073CC
:10037000797374656D3A20253034580A000A0025D7
:1003800030325820006B6579626F6172643A2000E8
:100390004C45443A20253032580A00253032583A2C
:1003A000202530386225730A00722F6320303132E5
:1003B00033343536370A0064656C5F6B65795F628C
:1003C00069743A2063616E27742064656C3A202555
:1003D0003032580A006164645F6B65795F626974EA
:1003E0003A2063616E2774206164643A20253032BC
:1003F000580A00290A002575002F002575005D2880
:1004000000256400200025640020002564002000F1
:100410002564007C0025303258006D6F7573656B64
:100420006579205B62746E7C782079207620685D27
:10043000287265702F61636C293A205B006D6B5FD9
:10044000776865656C5F74696D655F746F5F6D611A
:1004500078203D2025640A006D6B5F776865656CC8
:100460005F6D61785F7370656564203D2025640A67
:10047000006D6B5F74696D655F746F5F6D6178208F
:100480003D2025640A006D6B5F6D61785F73706558
:100490006564203D2025640A006D6B5F696E74659C
:1004A0007276616C203D2025640A006D6B5F646587
:1004B0006C6179203D2025640A006D6B5F7768656B
:1004C000656C5F74696D655F746F5F6D6178203D09
:1004D0002025640A006D6B5F776865656C5F6D61F0
:1004E000785F7370656564203D2025640A006D6B3C
:1004F0005F74696D655F746F5F6D6178203D202565
:10050000640A006D6B5F6D61785F73706565642070
:100510003D2025640A006D6B5F696E7465727661BB
:100520006C203D2025640A006D6B5F64656C617909
:10053000203D2025640A000A00257500363A207700
:100540006865656C5F74696D655F746F5F6D617818
:100550003A20000A00257500353A20776865656CF9
:100560005F6D61785F73706565643A20000A0025ED
:100570007500343A2074696D655F746F5F6D6178E2
:100580003A20000A00257500333A206D61785F73C8
:10059000706565643A20000A00257500323A2069CA
:1005A0006E74657276616C286D73293A20000A00BA
:1005B000257500313A2064656C6179282A31306DE7
:1005C00073293A20000A092D2056616C7565732045
:1005D0002D0A004D3E004D25643E20003F0073650E
:1005E000742064656661756C740A00433E20007770
:1005F000686572652064656C74613A206375727316
:100600006F723D25642C20776865656C3D25640A12
:1006100053656520687474703A2F2F656E2E776964
:100620006B6970656469612E6F72672F77696B699A
:100630002F4D6F7573655F6B6579730A000A092D1D
:10064000204D6F7573656B6579202D0A4553432FD7
:10065000713A09717569740A313A0964656C617996
:10066000282A31306D73290A323A09696E7465722D
:1006700076616C286D73290A333A096D61785F736E
:10068000706565640A343A0974696D655F746F5FFB
:100690006D61780A353A09776865656C5F6D6178D8
:1006A0005F73706565640A363A09776865656C5FE3
:1006B00074696D655F746F5F6D61780A0A703A09DD
:1006C0007072696E742076616C7565730A643A099C
:1006D0007365742064656661756C74730A75703A2D
:1006E000092B310A646F776E3A092D310A706775EC
:1006F000703A092B31300A7067646F776E3A092DB2
:1007000031300A0A7370656564203D2064656C743D
:1007100061202A206D61785F7370656564202A20EE
:1007200028726570656174202F2074696D655F742F
:100730006F5F6D6178290A003F004D3E2000433E07
:1007400020004C25640A000A092D20436F6E736F48
:100750006C65202D0A4553432F713A0971756974F0
:100760000A6D3A096D6F7573656B65790A000A0940
:100770002D204D61676963202D0A643A0964656222
:1007800075670A783A096465627567206D617472ED
:1007900069780A6B3A096465627567206B657962EE
:1007A0006F6172640A6D3A096465627567206D6FE6
:1007B0007573650A763A0976657273696F6E0A73A6
:1007C0003A097374617475730A633A09636F6E73DF
:1007D0006F6C65206D6F64650A302D343A096C6169
:1007E000796572302D34284631302D4634290A502F
:1007F0006175733A09626F6F746C6F616465720A38
:100800006E3A094E4B524F0A003F004E4B524F3A40
:10081000206F66660A004E4B524F3A206F6E0A00F8
:1008200074696D65725F72656164333228293A209C
:100830002530346C580A006B6579626F6172645FB1
:100840006E6B726F3A2025580A006B6579626F6192
:1008500072645F69646C653A2025580A006B65799B
:10086000626F6172645F70726F746F636F6C3A2055
:1008700025580A00686F73745F6B6579626F6172E7
:10088000645F6C65647328293A2025580A000A09B8
:100890002D20537461747573202D0A004743433A29
:1008A00020382E322E30204156522D4C4942433AA8
:1008B00020322E302E30204156525F415243483A6A
:1008C00020617672350A004F5054494F4E533A20FA
:1008D0004C554641204D4F5553454B4559204558A1
:1008E0005452414B455920434F4E534F4C452043A2
:1008F0004F4D4D414E44204E4B524F2034303936EF
:100900000A004255494C443A206662323438343643
:1009100031202831393A31393A3538204F63742043
:1009200020332032303138290A005649443A2030E9
:10093000784645454428742E6D2E6B2E292050494B
:10094000443A20307836353132285854206B657956
:10095000626F61726420636F6E766572746572296E
:10096000205645523A203078303030310A00444524
:1009700053433A20636F6E76657274205854206B2F
:100980006579626F61726420746F205553420A006A
:100990000A092D2056657273696F6E202D0A000AB0
:1009A0006D6F7573653A206F66660A000A6D6F7524
:1009B00073653A206F6E0A000A6B6579626F617227
:1009C000643A206F66660A000A6B6579626F61722D
:1009D000643A206F6E0A000A6D61747269783A2079
:1009E0006F66660A000A6D61747269783A206F6EEC
:1009F0000A000A64656275673A206F6E0A000A642D
:100A0000656275673A206F66660A000A0A626F6F50
:100A1000746C6F616465722E2E2E2000433E2000A0
:100A200011241FBECFEFDAE0DEBFCDBF04B603FE58
:100A300027C08091EC039091ED03A091EE03B0915B
:100A4000EF038730904BA740B04BD1F41092EC03EA
:100A50001092ED031092EE031092EF0314BE84B7D0
:100A6000877F84BF0FB6F894A89580916000886155
:100A700080936000109260000FBEE0E0F8E30995FB
:100A800011E0A0E0B1E0ECE3FCE402C005900D92BF
:100A9000AA38B107D9F723E0AAE8B1E001C01D9256
:100AA000AC3EB207E1F70E94DE090C9402260C94DA
:100AB0000000FF93EF93E0918A01F0918B01309752
:100AC00009F00995EF91FF910895FC01859180301F
:100AD00011F0EFDFFBCF0895FF27E0E230E247FFA0
:100AE0000CC0419597FF09C0EDE260957095809527
:100AF0009095611D711D811D911D27FF02C02195DB
:100B000030E350E2AA27660F771F881F991FAA1F9C
:100B1000A41710F0A41B63955A95A9F7AA3008F002
:100B2000A95FA05DAF93F3956115710581059105EE
:100B300041F7ED3211F4EF93F395F21718F43F9368
:100B4000F395FBCF8F91B5DFFA95E1F70895E99121
:100B5000F9918591803021F0853219F0AADFF9CF23
:100B6000089520E0E89455915532C1F3503311F4C3
:100B7000689455915A3348F4505390F3220F022E43
:100B8000220F220F200D250FF4CF0EF4219589910D
:100B90009991533619F3533729F1533559F1BC0163
:100BA00088279927E8945C3621F489919991689473
:100BB0005591543639F446EF7EF077FF0DC08FEF34
:100BC0009FEF0AC055374AE039F0583540E121F02F
:100BD000523642E009F00895FF93EF937DDFEF91E5
:100BE000FF91B7CFFF93EF93FC0181918030B9F370
:100BF00060DFFBCFFF93EF9368DFF1CFDF93CF93FD
:100C0000CDB7DEB72596A3DFCF91DF910895E9E652
:100C1000F0E0808188608083E9982F98279A2FEFF1
:100C200089E698E1215080409040E1F700C0000043
:100C300027985898509A5998519A2FEF89EF90E039
:100C4000215080409040E1F700C000005198599A2F
:100C50005098589AE19AE99A0895909103018091E9
:100C60000201891781F0E0910001F0910101E90F83
:100C7000F11D80819F5F20910401922390930301D5
:100C80005098589A089580E008951F920F920FB6D9
:100C90000F9211242F933F934F935F936F937F9302
:100CA0008F939F93AF93BF93EF93FF9329B12170DD
:100CB00090918D01992351F1993038F480918C01F4
:100CC0008695211136C080938C0181E0890F809335
:100CD0008D019830E9F48091020190E09C012F5F32
:100CE0003F4F4091040150E02423352340910301FC
:100CF0004217130601F55898509A8CE291E00E9431
:100D0000650510928D0110928C0102C02111DDCF7A
:100D1000FF91EF91BF91AF919F918F917F916F91D3
:100D20005F914F913F912F910F900FBE0F901F90A9
:100D300018958068C8CF2091000130910101820F81
:100D4000931F20918C01FC0120832091040180914C
:100D500002018F5F82238093020190E0019630E0D0
:100D600082239323209103012817190651F6C3CF3C
:100D7000CF93DF93D82FD770C82FC695C695C69549
:100D80006D2F8C2F0E94F41081110DC0EC2FF0E01C
:100D9000E156FE4F21E030E001C0220FDA95EAF77C
:100DA0008081822B8083DF91CF910895CF93DF9351
:100DB000D82FD770C82FC695C695C6956D2F8C2F86
:100DC0000E94F410882371F0EC2FF0E0E156FE4F02
:100DD00081E090E001C0880FDA95EAF78095908174
:100DE00089238083DF91CF9108958091CE03816024
:100DF0008093CE030E940706EFE9F1E0119281E0B3
:100E0000EF3AF807D9F70895CF930E942D06C82F1F
:100E10008823E9F08091CE0380FF0CC01F92CF930E
:100E200081E391E09F938F930E94FE050F900F90B6
:100E30000F900F9080919E01823009F44DC050F4C4
:100E4000882389F0813019F110929E01C1E08C2F26
:100E5000CF910895833009F448C08430A9F7C53490
:100E600099F785E511C0C03E41F0C13E51F08C2F8D
:100E7000C7FD09C00E94B806E9CF81E080939E01BA
:100E8000E5CF82E0FBCF8F770E94D606DFCFC63357
:100E9000D9F280F4CA32C1F2C7FD11C0CC5180E052
:100EA000C83428F4EC2FF0E0E25EFE4F80810E940F
:100EB000B806CACFCA3A41F2C63B71F7C5CFEC2F8C
:100EC000EF77EC5180E0E83420F4F0E0E25EFE4F92
:100ED00080810E94D606B8CFCD3129F0CD3909F0F6
:100EE000B3CF84E0CBCF83E0C9CFC53409F0ACCF1A
:100EF00085E5C0CFE82FF0E0E156FE4F80810895F0
:100F0000EFE9F1E0119281E0EF3AF807D9F708959F
:100F100008958091D2020895CF93DF9300D00F926D
:100F2000CDB7DEB79C018091E303843019F593E0DF
:100F300099833B832A839093E9008FEF9091E80097
:100F4000815095FD06C095ED9A95F1F7000081114D
:100F5000F5CF8091E80085FF0DC050E040E063E0F0
:100F600070E0CE0101960E941A0B8091E8008E7706
:100F70008093E8000F900F900F90DF91CF9108952C
:100F8000CF93DF9300D00F92CDB7DEB72091E3036C
:100F9000243021F522E029839B838A8383E0809398
:100FA000E9008FEF9091E800815095FD06C095ED26
:100FB0009A95F1F700008111F5CF8091E80085FF47
:100FC0000DC050E040E063E070E0CE0101960E9469
:100FD0001A0B8091E8008E778093E8000F900F90B5
:100FE0000F90DF91CF9108959C018091E3038430AD
:100FF000F9F482E08093E9009FEF8091E80091503E
:1010000085FD06C085ED8A95F1F700009111F5CFB9
:101010008091E80085FF0CC050E040E065E070E0A2
:10102000C9010E941A0B8091E8008E778093E80036
:101030000895CF93DF93EC018091E3038430D1F4E2
:10104000809114018823F1F0809115018823D1F05B
:1010500085E08093E90081E8815021F09091E800DB
:1010600095FF0BC08091E80050E040E060E270E046
:1010700085FD1AC0DF91CF9108959AE29A95F1F714
:1010800000C0EACF81E08093E90081E8815021F03F
:101090009091E80095FF19C08091E80085FFEACFA4
:1010A00050E040E068E070E0CE010E941A0B8091B1
:1010B000E8008E778093E80080E2FE01A2EBB2E0C8
:1010C00001900D928A95E1F7D5CFEFE3F1E03197EA
:1010D000F1F700C00000DACF309107010FB607FE2C
:1010E0001BC09091E3039430B9F42091E9002F7074
:1010F0009091EC0090FD30C090E0922B24E0209382
:10110000E9002091EB0020FF04C02091EE0027FDB4
:1011100041C09F709093E900232F30E0A9014F5FF9
:101120005F4F6091090170E04623572390910801B9
:1011300094171506C1F14091050150910601240F45
:10114000351FF9018083809107018F5F909109011C
:1011500089238093070132C090E8CFCFE091050149
:10116000F0910601E20FF11D40812F5F50910901BE
:101170002523209308014093F1002091E80025FDEC
:1011800009C02091E80020FF05C02091E8002E77DB
:101190002093E80020910801321739F04091E800CF
:1011A00045FDDCCFB6CF8FEF08952091E80025FFF5
:1011B000B0CF8093F1009F709093E90080E0089594
:1011C0008CE591E00E9465058091E203811109C0E0
:1011D0000E94A80C0E94050D8091E200846080931B
:1011E000E200089588E591E00E9465051092E2030F
:1011F00008950895089542E061EC81E00E94260C74
:1012000042E061EC82E00E94260C42E061EC83E067
:101210000E94260C42E261EC84E00E94260C42E22D
:1012200061EC85E00C94260C8091E503833009F491
:1012300055C030F4813071F1823009F491C00895C5
:101240008A3009F47DC08B3009F463C0893009F01D
:1012500044C08091E403813209F03FC08091E803EB
:101260009091E903009711F00497B9F58091E80097
:10127000877F8093E8008091E80082FF2AC08091F8
:10128000F1008093D2028091E8008B778093E80090
:101290000C945A0C8091E403813AF9F48091E800AF
:1012A000877F8093E8008091E8039091E903892B80
:1012B00061F460E282EB92E070E00E94690B809141
:1012C000E8008B778093E800089560E090E080E08C
:1012D000F3CF8091E3038111CECF08958091E40391
:1012E000813AD9F78091E8039091E903892BA9F716
:1012F0008091E800877F8093E8008091E80080FF7C
:10130000FCCF809114018093F1008091E8008E77EA
:10131000BDCF8091E403813201F78091E803909181
:10132000E903892BD1F68091E800877F8093E8005C
:101330000E945A0C8091E603809314010C946F155F
:101340008091E403813249F68091E800877F8093A1
:10135000E8000E945A0C8091E7038093D30208951D
:101360008091E403813A09F0B8CF8091E800877F4B
:101370008093E8008091E80080FFFCCF8091D30249
:10138000C2CF089508958091D2028093B101109246
:10139000D20280E00E9488070E9480070C946F159B
:1013A0000C94C3090E94571C8091E103882329F003
:1013B0000E94801C81110C94040B089584B7877FD0
:1013C00084BF0FB6F894A8958091600088618093DF
:1013D0006000109260000FBE80E890E00FB6F894B5
:1013E00080936100909361000FBE8CE698E00E94AC
:1013F000261C8AE091E00E947E0F88E491E00E9422
:1014000065050E94C1090E9440100E94A80C0E941C
:10141000050D8091E20084608093E20078948091D1
:10142000E3038430E1F70E9442108091CE0380FDF7
:1014300044C00E94C20987E391E00E946505C4E0B0
:101440008091E3038530E1F10E9446102091E40091
:101450003091E5008091AF019091B00128173907D4
:1014600079F38091E4009091E5009093B00180932E
:10147000AF018091E303843019F79091E9009F70E8
:101480008091EC0080FD1FC080E0892BC093E900B3
:101490009091EB0090FF04C09091EE0097FD31C059
:1014A0008F708093E900CCCFEFE9FFE03197F1F73F
:1014B00000C000000197C1F7BCCF81ED97E0FACFE3
:1014C0000E94D209BDCF80E8E0CFE0910501F09104
:1014D0000601E90FF11D20819F5F309109019323DF
:1014E000909308012093F1009091E80095FD09C0C8
:1014F0009091E80090FF05C09091E8009E7790934E
:10150000E8009091080120910701291721F020910E
:10151000E80025FDDACF9091F3002091F200392FF9
:10152000232B09F4BDCF9091E80090FFB9CF9091A3
:10153000E80095FD06C09091E8009E779093E80042
:10154000AFCF1092F100F3CF0E94941C8091B101B3
:101550008093D20208950C94A40A292F33272330B4
:10156000310521F168F42130310509F443C02230FE
:10157000310509F444C090E080E030E020E026C06E
:101580002132310551F122323105A9F7653098F742
:1015900070E0FB01EE0FFF1FE559FE4F2081318106
:1015A0006A597E4FFB01808190E010C099278130FD
:1015B000910581F0009729F00297E9F6E0E6F1E065
:1015C00002C0EEE9F1E0849190E09F01FA013183DD
:1015D00020830895EEE8F1E0F6CF653060F6E62F5F
:1015E000F0E0EE0FFF1FEB58FE4F2081318189E0C4
:1015F00090E0ECCF82E190E02FE232E0E7CF8DE89F
:1016000090E022EA31E0E2CF80E189BD82E189BD4C
:1016100009B400FEFDCF8091D8008F7D8093D80063
:101620008091E00082608093E0008091E00081FD85
:10163000FCCF0895AF92BF92CF92DF92FF920F93AB
:101640001F93CF93DF936C01EB018A010E94790C09
:10165000F82E811123C00115110539F0F8018081A0
:101660009181C81BD90BC80ED91EB12CA12C209773
:10167000A9F08091E80085FD22C08091E8008E7776
:101680008093E80001151105A1F0F8018081918196
:10169000A80EB91EB182A08285E0F82E8F2DDF91B1
:1016A000CF911F910F91FF90DF90CF90BF90AF909F
:1016B00008950E94790C8823D1F2F82EEFCFF6011D
:1016C00081916F018093F1002197FFEFAF1ABF0A5C
:1016D000CECFFC018091EA039091EB038617970728
:1016E000A0F06115710529F49091E8009E77909320
:1016F000E80090E06115710551F4911108C08091E6
:10170000E80082FF34C080E00895BC01F2CF8091F0
:10171000E3038823C1F18530C1F18091E80083FDA6
:1017200030C08091E80082FDEACF8091E80080FF20
:10173000E1CF8091F3002091F200382F61157105FF
:1017400019F02830310558F091E02830310509F0C2
:1017500090E02091E8002E772093E800CBCF819194
:101760008093F100615071092F5F3F4FE7CF809167
:10177000E303882341F0853041F08091E80083FF46
:10178000BECF81E0089582E0089583E00895FC01D2
:101790008091EA039091EB0386179707A0F06115FB
:1017A000710529F48091E8008E778093E80090E03D
:1017B0006115710551F4911108C08091E80082FF14
:1017C00035C080E00895BC01F2CF8091E303882307
:1017D000C9F18530C9F18091E80083FD31C0809165
:1017E000E80082FDEACF8091E80080FFE1CF8091A0
:1017F000F3002091F200382F6115710519F028309F
:10180000310558F091E02830310509F090E08091E1
:10181000E8008E778093E800CBCF84918093F1002D
:101820003196615071092F5F3F4FE6CF8091E303FE
:10183000882341F0853041F08091E80083FFBDCFDF
:1018400081E0089582E0089583E00895982F97300D
:1018500028F08F708093E90081E008959093E9006B
:10186000242F762F50E0981731F07091EC002091E2
:10187000ED005091F00021FD02C09F5FE8CF309154
:10188000EB003E7F3093EB003091ED003D7F3093D5
:10189000ED003091EB0031603093EB007093EC0081
:1018A0002093ED005093F0002091EE0027FDE5CF4E
:1018B00080E008958091E40387FF13C08091E800E1
:1018C00082FF06C08091E8008B778093E80004C017
:1018D0008091E3038111F2CF08958091E30388237F
:1018E000D9F38091E80080FFF8CF8091E8008E77EF
:1018F000ECCF2091E4003091E50085E6A9019091BC
:10190000EC0090FF06C09091E80090FF06C080E0D8
:1019100008959091E80092FDFACF9091E303992306
:1019200089F0953089F09091EB0095FD0FC02091E2
:10193000E4003091E5004217530709F38150F1F6B6
:1019400084E0089582E0089583E0089581E0089599
:101950000E94160D0E941E0DE0EEF0E08081816075
:101960008083E8EDF0E080818F77808319BCA7ED5C
:10197000B0E08C918E7F8C9380818F7E80831092DB
:10198000E20308950F931F93CF93DF930E94160DE8
:101990000E941E0DC8EDD0E088818F7788838881F2
:1019A0008068888388818F7D888319BC1092E303C7
:1019B0001092DF031092E1031092E00300EE10E0BA
:1019C000F80180818B7F808388818160888342E0F9
:1019D00060E080E00E94260CE1EEF0E080818E7FE6
:1019E0008083E2EEF0E08081816080838081886086
:1019F0008083F80180818E7F8083888180618883E5
:101A0000DF91CF911F910F910895E8EDF0E0808173
:101A10008F7E8083E7EDF0E080818160808384E0C9
:101A200082BF81E08093E2030C94C20CE8EDF0E009
:101A300080818E7F80831092E20008951092DA00F8
:101A40001092E10008951F920F920FB60F92112489
:101A50002F933F934F935F936F937F938F939F93B6
:101A6000AF93BF93EF93FF938091E10082FF0BC090
:101A70008091E20082FF07C08091E1008B7F80931C
:101A8000E1000E94FA088091DA0080FF19C080917D
:101A9000D80080FF15C08091DA008E7F8093DA0035
:101AA0008091D90080FF94C080E189BD82E189BD29
:101AB00009B400FEFDCF81E08093E3030E94E008BB
:101AC0008091E10080FF19C08091E20080FF15C085
:101AD0008091E2008E7F8093E2008091E20080613D
:101AE0008093E2008091D80080628093D80019BC76
:101AF00085E08093E3030E94D0098091E10084FF98
:101B000029C08091E20084FF25C080E189BD82E187
:101B100089BD09B400FEFDCF8091D8008F7D8093F0
:101B2000D8008091E1008F7E8093E1008091E200F7
:101B30008F7E8093E2008091E20081608093E200DA
:101B40008091DF03882309F449C084E08093E30394
:101B50000E94AB0A8091E10083FF29C08091E200DE
:101B600083FF25C08091E100877F8093E10082E0C0
:101B70008093E3031092DF038091E1008E7F8093D6
:101B8000E1008091E2008E7F8093E2008091E2008C
:101B900080618093E20042E060E080E00E94260CD9
:101BA0008091F00088608093F0000E94F908FF9116
:101BB000EF91BF91AF919F918F917F916F915F91C5
:101BC0004F913F912F910F900FBE0F901F9018953E
:101BD00019BC1092E3030E94F20872CF8091E300D7
:101BE00087FD02C081E0B2CF83E0B0CF1F920F9299
:101BF0000FB60F9211242F933F934F935F936F93E0
:101C00007F938F939F93AF93BF93CF93EF93FF9364
:101C1000C091E900CF708091EC001092E9008091B2
:101C2000F000877F8093F00078940E94320E10922B
:101C3000E9008091F00088608093F000C093E90093
:101C4000FF91EF91CF91BF91AF919F918F917F9134
:101C50006F915F914F913F912F910F900FBE0F9019
:101C60001F9018951F93CF93DF93CDB7DEB7AA9738
:101C70000FB6F894DEBF0FBECDBF84EE93E0209187
:101C8000F100FC012193CF01F3E08C3E9F07B9F7EF
:101C90000E9414098091E80083FF82C08091E403D0
:101CA0009091E5039A3008F07BC0E92FF0E0EC5FFB
:101CB000F94D0C94E825803881F0823809F070C025
:101CC0008091E8038F708093E9008091EB0085FBA1
:101CD000882780F91092E90006C08091E003909176
:101CE000E103911182609091E800977F9093E80062
:101CF0008093F1001092F1008091E8008E77F9C096
:101D0000882309F4E6C0823009F04AC08091E603D6
:101D10008111EAC08091E8038F7009F441C080937B
:101D2000E9002091EB0020FFDFC0933031F4809177
:101D3000EB0080628093EB00D7C09091EB00906144
:101D40009093EB0021E030E001C0220F8A95EAF782
:101D50002093EA001092EA008091EB008860EACFBD
:101D600081111EC01091E6031F778091E3008078F7
:101D7000812B8093E3008091E800877F8093E800C7
:101D80000E945A0C8091E80080FFFCCF8091E30014
:101D900080688093E30082E0111183E08093E30385
:101DA0008091E80083FF0AC08091E800877F8093DC
:101DB000E8008091EB0080628093EB00AA960FB65A
:101DC000F894DEBF0FBECDBFDF91CF911F91089574
:101DD0008058823028F78091E6039091E7038C3D8C
:101DE00023E09207A1F583E08A838AE289834FB7D3
:101DF000F894DE01139620E03EE051E2E32FF0E09C
:101E000050935700E49120FF03C0E295EF703F5FCD
:101E1000EF708E2F90E0EA30C0F0C7968D939D93BF
:101E20002F5F243159F74FBF8091E800877F80935F
:101E3000E8006AE270E0CE0101960E94690B809191
:101E4000E8008B778093E800ABCFC096E7CFAE0178
:101E50004F5F5F4F6091E8030E94AD0ABC01892B80
:101E600009F49ECF9091E800977F9093E8008981D4
:101E70009A810E94C70BE3CF803809F091CF8091FF
:101E8000E800877F8093E8008091DF038093F10072
:101E900033CF811185CF9091E603923008F080CF47
:101EA0008091E800877F8093E8009093DF030E9491
:101EB0005A0C8091DF03882311F084E005C08091E3
:101EC000E30087FDFACF81E08093E3030E94FB08E3
:101ED00067CF8091E603813009F062CF81E09330D3
:101EE00009F080E08093E1031092E9008091E8001E
:101EF000877F8093E8000E945A0C52CF9093D902BA
:101F00008093D8020895E091D802F091D9023097D9
:101F100021F00190F081E02D099480E00895EF9286
:101F2000FF920F931F93CF93DF938C01E091D80220
:101F3000F091D9023097C1F10280F381E02D09952B
:101F40008091CE0382FF30C080FF04C085E893E01B
:101F50000E946505D0E0C0E08FE7E82E83E0F82E10
:101F60008091CE0380FF0EC0F801EC0FFD1F808131
:101F70001F928F93FF92EF920E94FE050F900F9099
:101F80000F900F902196C032D10551F78091CE036A
:101F900080FF0AC08DE793E0DF91CF911F910F91F1
:101FA000FF90EF900C946505DF91CF911F910F91F9
:101FB000FF90EF900895E091D802F091D902309708
:101FC00021F00480F581E02D09940895CF93DF93EB
:101FD000EC018091D6029091D7028C179D0701F1F8
:101FE000D093D702C093D602E091D802F091D902E3
:101FF0003097B1F00680F781E02DCE0109958091F0
:10200000CE038570853061F4DF93CF938FE693E044
:102010009F938F930E94FE050F900F900F900F904B
:10202000DF91CF910895CF93DF93EC018091D4029B
:102030009091D5028C179D0701F1D093D502C093E2
:10204000D402E091D802F091D9023097B1F0008427
:10205000F185E02DCE0109958091CE038570853004
:1020600061F4DF93CF938FE593E09F938F930E946A
:10207000FE050F900F900F900F90DF91CF91089574
:102080000C94F3100E94BF1C0C94F5069F92AF9223
:10209000BF92CF92DF92EF92FF920F931F93CF9355
:1020A000DF9300D000D00F92CDB7DEB70E940407B7
:1020B0008BEDC82E82E0D82E10E0812F0E947A0787
:1020C000982EF601E1906F01E81699F18091CE0308
:1020D00081FD0E940811F12C01E0E9245601F1E094
:1020E000AF1AB1088E2D8023F9F0F9821A8391E09E
:1020F000892D802309F490E09B830E94C81C816095
:10210000782F9D838C8349815A816B818D810E94B8
:102110003E1149815A816B817C818D810E94441CD2
:10212000F501808180278083F394000FF8E0FF128F
:10213000D9CF1F5F103109F0C0CF8FEF89838A8319
:102140001B820E94C81C8160782F9D838C834981EB
:102150005A816B818D810E943E110E94431C0E9416
:102160002D200E94830F9091DA02891749F10E9475
:10217000830F8093DA029091CE039570953061F4CD
:102180001F928F9380E993E09F938F930E94FE05A7
:102190000F900F900F900F908091DA020F900F9098
:1021A0000F900F900F90DF91CF911F910F91FF90A3
:1021B000EF90DF90CF90BF90AF909F900C94551C04
:1021C0000F900F900F900F900F90DF91CF911F9174
:1021D0000F91FF90EF90DF90CF90BF90AF909F90C6
:1021E00008950C9488070895CF93C62F0E947A070C
:1021F00021E030E002C0220F331FCA95E2F790E0E1
:102200002823392381E0232B09F480E0CF9108951E
:10221000EF92FF920F931F93CF93DF9389EA93E09E
:102220000E946505D0E0C0E08FE7E82E81E0F82E3F
:102230000BE913E08C2F0E947A070E942B1CFF925F
:10224000EF921F928F93DF93CF931F930F930E9470
:10225000FE0521968DB79EB708960FB6F8949EBFDF
:102260000FBE8DBFC031D10529F7DF91CF911F91EE
:102270000F91FF90EF90089508950895CF93DF9305
:10228000CDB7DEB72B970FB6F894DEBF0FBECDBF2C
:102290004F83588769877A878B878A859B85892BA7
:1022A00021F0852F84238F3FD9F41E821D8285E083
:1022B000FE013796DE01119601900D928A95E1F7A5
:1022C00049815A816B817C818D819E812B960FB6CD
:1022D000F894DEBF0FBECDBFDF91CF910C943918BB
:1022E00069857A858B850E94441CDFCFCF93C82FE8
:1022F000882309F490C08CEF8C0F813A58F48C2F0E
:102300000E945523811187C08C2F0E94231BCF91DF
:102310000C94001C80E28C0F883048F4C77081E078
:1023200001C0880FCA95EAF70E94C71BF0CF8BE562
:102330008C0F833068F481E890E0C53A31F083E88F
:1023400090E0C63A11F482E890E0CF910C94E60F49
:1023500088E58C0F853108F05EC082EE90E0C83AC7
:1023600009F456C089EE90E0C93A09F451C08AEEEA
:1023700090E0CA3A09F44CC085EB90E0CB3A09F4FE
:1023800047C086EB90E0CC3A09F442C083EB90E082
:10239000CD3AF1F184EB90E0CE3AD1F187EB90E0C9
:1023A000CF3AB1F18CEC90E0C13B91F18DEC90E033
:1023B000C03B71F183E891E0C23B51F18AE891E0C2
:1023C000C33B31F182E991E0C43B11F184E991E032
:1023D000C53BF1F081E292E0C63BD1F083E292E0AE
:1023E000C73BB1F084E292E0C83B91F085E292E015
:1023F000C93B71F086E292E0CA3B51F087E292E07D
:10240000CB3B31F090E080E0CC3B11F48AE292E0EB
:10241000CF910C941310CF910895882329F19CEF4C
:10242000980F913A20F40E94711B0C94001C90E2CA
:10243000980F983050F4877091E001C0990F8A95F9
:10244000EAF7892F0E94CD1BF0CF9BE5980F9330C0
:1024500020F490E080E00C94E60F885A853120F457
:1024600090E080E00C9413100895882321F00E94DE
:10247000C71B0C94001C0895882321F00E94CD1BDB
:102480000C94001C0895AF92BF92CF92DF92EF920E
:10249000FF920F931F93CF93DF9300D000D00F9242
:1024A000CDB7DEB75C0185E0F501DE011196019044
:1024B0000D928A95E1F7F50183819481009739F0B7
:1024C00040815181252F24232F3F09F0DDC20F9039
:1024D0000F900F900F900F90DF91CF911F910F9160
:1024E000FF90EF90DF90CF90BF90AF900895F12FC5
:1024F000FF70EF2E107F19F0E29440EFE422FF20EE
:10250000C9F0EE2029F08E2D0E94DA1B0E94001CDB
:10251000802F0F900F900F900F900F90DF91CF9121
:102520001F910F91FF90EF90DF90CF90BF90AF90F1
:102530000C947611802F0E940D12EE2041F28E2D08
:102540000E94E01B0F900F900F900F900F90DF9163
:10255000CF911F910F91FF90EF90DF90CF90BF90A0
:10256000AF900C94001C812F8F70D82E107F1032EA
:1025700019F0D29430EFD322002379F0013009F41E
:1025800052C0FF2009F460C0EE2059F0F5018581AA
:1025900080FFBECF8F70858304C0FF2049F1E1101A
:1025A00012C08D2D0F900F900F900F900F90DF9114
:1025B000CF911F910F91FF90EF90DF90CF90BF9040
:1025C000AF900C943512E1E08D2DEE12EBCF0F9011
:1025D0000F900F900F900F90DF91CF911F910F915F
:1025E000FF90EF90DF90CF90BF90AF900C94EA1BDC
:1025F000E11014C00E94ED1B8D2D0F900F900F90D5
:102600000F900F90DF91CF911F910F91FF90EF905E
:10261000DF90CF90BF90AF900C943C12F1E0EF169A
:1026200009F455CFE7CFFF2051F085E08E1508F46F
:102630004ECF0E94C41B8D2109F4B3CFDDCFE4E05F
:10264000EE1508F444CFD8CFEE20B1F2802F0F90D2
:102650000F900F900F900F90DF91CF911F910F91DE
:10266000FF90EF90DF90CF90BF90AF900C940D1241
:10267000812F869586958370D1F0813009F027CF20
:10268000C8019370F11002C090E080E00F900F90AD
:102690000F900F900F90DF91CF911F910F91FF90AE
:1026A000EF90DF90CF90BF90AF900C941310C801C3
:1026B0009370F11002C090E080E00F900F900F90A7
:1026C0000F900F90DF91CF911F910F91FF90EF909E
:1026D000DF90CF90BF90AF900C94E60F802FFF203B
:1026E00099F00E94B91E0F900F900F900F900F90CD
:1026F000DF91CF911F910F91FF90EF90DF90CF90DE
:10270000BF90AF900C94A01F0E94211FECCF812F8F
:10271000837009F071C0F110DACE202F2295269532
:102720002770220F220F602F6F70C62ED12CF12C34
:10273000E12C022E04C0CC0CDD1CEE1CFF1C0A9404
:10274000D2F760E070E0CB0104FF0FC06FE070E0F3
:1027500080E090E004C0660F771F881F991F2A95BC
:10276000D2F7609570958095909516951695137093
:102770001230C1F060F56C297D298E299F29113016
:1027800051F10F900F900F900F900F90DF91CF911C
:102790001F910F91FF90EF90DF90CF90BF90AF907F
:1027A0000C9497196C297D298E299F290F900F90E1
:1027B0000F900F900F90DF91CF911F910F91FF908D
:1027C000EF90DF90CF90BF90AF900C94B1190E9422
:1027D0009719C701B6010F900F900F900F900F90AF
:1027E000DF91CF911F910F91FF90EF90DF90CF90ED
:1027F000BF90AF900C947D198695FF2011F0812F2A
:102800008170882309F463CE202F229526952770A6
:10281000220F220F602F6F70C62ED12CF12CE12CCD
:10282000022E04C0CC0CDD1CEE1CFF1C0A94D2F757
:1028300060E070E0CB0104FF0FC06FE070E080E06B
:1028400090E004C0660F771F881F991F2A95D2F762
:102850006095709580959095169516951370123029
:10286000C1F060F56C297D298E299F29113051F125
:102870000F900F900F900F900F90DF91CF911F91BD
:102880000F91FF90EF90DF90CF90BF90AF900C949E
:102890005C1A6C297D298E299F290F900F900F902B
:1028A0000F900F90DF91CF911F910F91FF90EF90BC
:1028B000DF90CF90BF90AF900C946E1A0E945C1A7C
:1028C000C701B6010F900F900F900F900F90DF91FE
:1028D000CF911F910F91FF90EF90DF90CF90BF901D
:1028E000AF900C944A1A003F09F444C060F480E4AD
:1028F000800F803228F1FF2009F495C0E11008CE46
:10290000812F8F7159C0023F09F467C008F450C08D
:10291000033F89F7FF2009F475C0812F8F710F9055
:102920000F900F900F900F90DF91CF911F910F910B
:10293000FF90EF90DF90CF90BF90AF900C94D019A4
:10294000812F8F71102F1071FF2051F00E94E51917
:10295000802F8295807F111125CE802F8F7022CEFF
:102960000E94061A802F8295807F111146CE802FFB
:102970008F7043CEFF20B9F0F4E0FE1508F4A7CD28
:10298000812F8F710F900F900F900F900F90DF910C
:10299000CF911F910F91FF90EF90DF90CF90BF905C
:1029A000AF900C94291A85E08E1508F490CDE8CFED
:1029B000812F8F71FF20A9F00F900F900F900F9033
:1029C0000F90DF91CF911F910F91FF90EF90DF90CB
:1029D000CF90BF90AF900C94E519812F8F71FF209D
:1029E00059F30F900F900F900F900F90DF91CF91B0
:1029F0001F910F91FF90EF90DF90CF90BF90AF901D
:102A00000C94061A0F900F900F900F900F90DF917B
:102A1000CF911F910F91FF90EF90DF90CF90BF90DB
:102A2000AF900C94CB19E11011CE812F8F71D9CFBB
:102A3000412F4F70602FC5010E944F1D0F900F90C6
:102A40000F900F900F90DF91CF911F910F91FF90FA
:102A5000EF90DF90CF90BF90AF900C94D318412FA0
:102A60004F70602FC5010F900F900F900F900F9037
:102A7000DF91CF911F910F91FF90EF90DF90CF905A
:102A8000BF90AF900C94521DF280E580E2942FE04D
:102A9000E222782F9D838C836F2D8D810E94811A75
:102AA0008C010E94801A0E947219E12FE295EF704A
:102AB000F0E0E25FF94D0C94E8250E94E71B0E94CC
:102AC000B61B0E94001C0E94CE200E94A01F90E016
:102AD00080E00E94E60F90E080E00C9413100E94CA
:102AE000D71B0C945D15CF93DF9300D000D00F92CD
:102AF000CDB7DEB76B837C838D838C819D81892BE1
:102B000021F0842F85238F3F89F480E02EC090E24E
:102B1000980F983008F1883E30F4803EE8F48450F5
:102B2000813A98F719C0803F81F716C06B817C818C
:102B30008D810E94811A292F22952F702C3070F4DC
:102B40002A3048F722502F702230F8F6853AF8F6EE
:102B5000843010F48230F8F681E007C02C3011F098
:102B60002F3099F693FB882780F90F900F900F90E4
:102B70000F900F90DF91CF910895CF93DF9300D006
:102B800000D00F92CDB7DEB70F900F900F900F903F
:102B90000F90DF91CF910895CF93DF9300D000D0B5
:102BA00000D0CDB7DEB726960FB6F894DEBF0FBEC5
:102BB000CDBFDF91CF9108951F93CF93DF93C09145
:102BC000EB0216E08091EC028C1304C0DF91CF91F0
:102BD0001F910895D0E01C9FF0011D9FF00D11245E
:102BE000E351FD4F408151816281738184819581E0
:102BF0000E94CC152196C770E5CF40911D035091DE
:102C00001E0360911F037091200380912103909116
:102C100022030C94CC151F93CF93DF938091220352
:102C2000807FC1F480911F038823A1F08091EB0283
:102C3000C091EC0260911D0370911E03409120032E
:102C400050912103D62FD723DA01A095B09516E035
:102C5000C81304C0DF91CF911F91089590E04115F2
:102C6000510511F0DF3F31F401968770F1CF2A0F43
:102C70003B1F17C0189FF001199FF00D1124E3515D
:102C8000FD4F21812713F0CF20812613EDCF228124
:102C90002111EACF238134812417350740F3241B07
:102CA000350B283C310500F7209122032F7020615D
:102CB0002093220326E0289FF001299FF00D112484
:102CC000EE50FD4F80818F70806180838DE193E0B5
:102CD0000E944312DF91CF911F910C94DC15BF929B
:102CE000CF92DF92EF92FF920F931F93CF93DF93D8
:102CF000CDB7DEB761970FB6F894DEBF0FBECDBF7C
:102D00006C0185E0F601DE011D9601900D928A9519
:102D1000E1F7D6014C9111965C9111971296FC90B7
:102D2000129713960D911C9180912003909121038D
:102D3000009709F489C120911D0330911E03622F71
:102D400063236F3F09F480C1B0901F03BB2009F4D7
:102D50001AC108171907D0F1F801E81BF90BCF01C8
:102D6000EE24E394883C910508F0E12C8091220345
:102D7000982F907FEE2009F4BCC0911181C0EF2CF8
:102D8000351329C0241327C0F11025C08F7080612E
:102D9000809322030E94FD158DE193E00E9443126F
:102DA00080912203D60115968C938E2D61960FB6D5
:102DB000F894DEBF0FBECDBFDF91CF911F910F9171
:102DC000FF90EF90DF90CF90BF9008958095909501
:102DD000800F911FC5CF0115110529F0852F842380
:102DE0008F3F09F043C180E0B82FB170BB2E80FF48
:102DF0003DC08091EB022091EC0236E0821316C0B8
:102E0000702F198B088B6F2D89890E94811A292FA9
:102E100022952F702230F0F0243018F59F70F1F0D9
:102E2000F6019581907FD1F4B12C1EC090E0389FBF
:102E3000F001399FF00D1124E351FD4F61816513BD
:102E400006C06081641303C06281F6120FC0019650
:102E50008770D4CF9F7011F0882331F3805E883063
:102E600018F3C6010E944312EB2C9FCFFF2009F4F8
:102E70009CCF80912203816080932203E12C95CF27
:102E8000351306C0241304C0D601FF2009F4A1C0E5
:102E90004D875E87FF86702F198B088B6F2D898970
:102EA0000E947315882309F4DDC0FF2009F4DAC0FD
:102EB00080912203803270F020911D0330911E0317
:102EC00038872F8319861B870A878C87CE01079640
:102ED0000E94431286E0F601ADE1B3E001900D924D
:102EE0008A95E1F70E940B160E94FD15EE24E394EB
:102EF0005CCF911113C0702F198B088B6F2D8989AE
:102F00000E94BD158DE193E00E94431286E0EDE141
:102F1000F3E0DF011D928A95E9F768C0351311C00F
:102F200024130FC0F1100DC0F6018583C6010E9465
:102F30004312EDE1F3E086E0DF011D928A95E9F7A7
:102F400093CF4D875E87FF86702F198B088B6F2D6F
:102F500089890E947315882309F484C0FF2009F42D
:102F600081C080912203803208F4B4CF20911D03E8
:102F700030911E033A8329831B821D830C838E8329
:102F8000CE010196A5CF0817190798F1F801E81BA3
:102F9000F90BCF01E12C883C910508F04DC0EF2CD6
:102FA000FF2009F45FC0351332C0241330C0809174
:102FB000220380FD23C0982F907F01F1D601159642
:102FC0008C931597903F39F0982F907F905F8F707A
:102FD000892B15968C93C6010E94431286E0F60158
:102FE000ADE1B3E001900D928A95E1F70E94FD15E5
:102FF000DCCE80959095800F911FCCCF86E0F601B6
:10300000ADE1B3E001900D928A95E1F7CECE4D8708
:103010005E87FF86702F198B088B6F2D89890E9420
:103020007315811157CF8091220381608093220311
:10303000C6010E944312B9CE702F198B088B6F2DD9
:1030400089890E94BD1562CFFF2061F04D875E87A0
:10305000FF86702F198B088B6F2D89890E9473153D
:10306000811138CFC6010E94431240CF81E08F25E5
:10307000BBCE1F93CF93DF93CDB7DEB72C970FB6A0
:10308000F894DEBF0FBECDBF4F83588769877A871C
:103090008B879C87CE0107960E946F16882369F064
:1030A0008A859B85892B39F04F815885842F85230C
:1030B0008F3F09F071C016E05FC086E0FE013796D1
:1030C000DE01119601900D928A95E1F78A859B8524
:1030D000892B89F388859F8189238F3F61F3209114
:1030E000EC0230E0C9010196877099274091EB020C
:1030F0004817190671F40E946F151092EC02109295
:10310000EB0286E0EDE1F3E0DF011D928A95E9F73D
:10311000D2CF96E0929FD001939FB00D1124A3517E
:10312000BD4FFE01319601900D929A95E1F7809383
:10313000EC020E94DC15BFCF819FC0011124835196
:103140009D4F0E946F168823E9F0E091EB021E9FCD
:10315000F0011124E351FD4F40815181628173815F
:10316000848195810E94CC158091EB0290E00196BC
:10317000877099278093EB028091EB029091EC028B
:103180008913DACF2C960FB6F894DEBF0FBECDBFF1
:10319000DF91CF911F91089569857A858B859C85F4
:1031A0000E94CC1588CFDF92EF92FF920F931F936E
:1031B000CF93DF938C01892BB9F0E12CF12CDD2426
:1031C000D394E8012196F8018491853709F46AC007
:1031D00098F4843708F059C0843008F06FC081300B
:1031E00011F1823009F43CC0DF91CF911F910F9112
:1031F000FF90EF90DF900895883709F45CC058F491
:10320000863709F454C0873779F78E2D0E94D41B76
:103210000E94001C1FC09CE7980F903728F78F77FB
:103220000E940D1217C00E5F1F4FFE01849190E2A5
:10323000980F983060F48770FD2D01C0FF0F8A95BC
:10324000EAF78F2F0E94DA1B0E94001C02C00E9426
:103250007611E8018F2D815008F033C08E01B1CF77
:103260000E5F1F4FFE01849190E2980F983050F44A
:103270008770FD2D01C0FF0F8A95EAF78F2F0E94FE
:10328000E01BE2CF0E940D12E4CF0E5F1F4FFE0144
:10329000C491C150F0F28FE99FE00197F1F700C0AF
:1032A0000000F7CF0E5F1F4FFE01F490D2CF0E94B7
:1032B000C41BE82ECFCF0E94D71BAACF0E94761145
:1032C000C9CFEFE9FFE03197F1F700C00000C3CFAD
:1032D0006093A3037093A4038093A5039093A60324
:1032E0000C94541C08956093A7037093A8038093D3
:1032F000A9039093AA030C94531C0F931F9300915E
:10330000A7031091A8032091A9033091AA03602B71
:10331000712B822B932B6093A7037093A803809348
:10332000A9039093AA031F910F910C94531C0F9320
:103330001F930091A7031091A8032091A903309136
:10334000AA0360237123822393236093A7037093BE
:10335000A8038093A9039093AA031F910F910C9443
:10336000531C0F931F930091A7031091A803209162
:10337000A9033091AA0360277127822793276093BE
:10338000A7037093A8038093A9039093AA031F91A6
:103390000F910C94531C60E070E0CB010C94681901
:1033A0000F931F9341E050E060E070E08A019B01C1
:1033B00004C0000F111F221F331F8A95D2F7C901C5
:1033C000B8011F910F910C9468190F931F9341E05E
:1033D00050E060E070E004C0440F551F661F771F87
:1033E0008A95D2F78091A3039091A403A091A5039D
:1033F000B091A6038A019B01082B192B2A2B3B2B8A
:10340000C901B8011F910F910C9468190F931F9374
:1034100041E050E060E070E004C0440F551F661FBB
:10342000771F8A95D2F7CB01BA0160957095809588
:1034300090950091A3031091A4032091A5033091CE
:10344000A60360237123822393231F910F910C9471
:1034500068190F931F9341E050E060E070E004C0F2
:10346000440F551F661F771F8A95D2F78091A303DB
:103470009091A403A091A503B091A6038A019B019A
:10348000082719272A273B27C901B8011F910F9147
:103490000C9468190F931F930091A3031091A40338
:1034A0002091A5033091A603602B712B822B932BC7
:1034B0001F910F910C9468190F931F930091A30310
:1034C0001091A4032091A5033091A60360237123DA
:1034D000822393231F910F910C9468190F931F93CC
:1034E0000091A3031091A4032091A5033091A6039A
:1034F00060277127822793271F910F910C946819D9
:1035000008954F925F926F927F929F92AF92BF9277
:10351000CF92DF92EF92FF920F931F93CF93DF939F
:1035200000D000D00F92CDB7DEB749835A836B83AA
:103530007C838D838C819D81892B29F07A018F2D4D
:1035400084238F3F51F590E080E00F900F900F9013
:103550000F900F90DF91CF911F910F91FF90EF90FF
:10356000DF90CF90BF90AF909F907F906F905F90D3
:103570004F900895B7018A2D0E94701D0197C1F1E7
:103580003CC0F80183E0EE0FFF1F8A95E1F7ED5D87
:10359000FC4FEC0DFD1D90803BC00F2D10E0C42EA4
:1035A000D12C8B81882369F34090A3035090A4030E
:1035B0006090A5037090A6038091A7039091A80343
:1035C000A091A903B091AA03482A592A6A2A7B2A02
:1035D0002FE1A22EB12C9A2CD301C2010A2C04C0D7
:1035E000B695A795979587950A94D2F780FDC2CF97
:1035F00081E0A81AB10878F7912CF80193E0EE0F5A
:10360000FF1F9A95E1F7ED5DFC4FEC0DFD1D9082DB
:10361000E982FA8269817A81892D0F900F900F904B
:103620000F900F90DF91CF911F910F91FF90EF902E
:10363000DF90CF90BF90AF909F907F906F905F9002
:103640004F900C94701D90911401992369F1909101
:103650001501992349F1E82FE695E695E695EF31B6
:1036600091F02091160130911701E20FF32FF11D17
:10367000877021E030E001C0220F8A95EAF781814E
:10368000822B818308959091CE0390FF22C01F92D8
:103690008F9385ED93E09F938F930E94FE050F908B
:1036A0000F900F900F9008952091160130911701FF
:1036B000F90132969FEF40E05191851751F09F3FFD
:1036C00019F4511101C0942F4F5F4E31A9F79F3F5C
:1036D00009F40895290F311D97FD3A95F901828368
:1036E000089590911401992379F1909115019923EE
:1036F00059F1E82FE695E695E695EF31A1F0209196
:10370000160130911701E20FF32FF11D282F2770BA
:1037100081E090E001C0880F2A95EAF780959181B9
:103720008923818308959091CE0390FF1EC01F923C
:103730008F9387EB93E09F938F930E94FE050F90EA
:103740000F900F900F90089520911601309117015E
:10375000F9013296205E3F4F9191891303C0DF013A
:1037600011971C92E217F307B9F7089581E090E0F2
:10377000E0911601F0911701E80FF91F10820196F0
:1037800080329105A9F708958091CD030895909115
:10379000CD03892B8093CD03089580959091CD031F
:1037A00098239093CD0308958093CD0308951092AC
:1037B000CD0308959091CC03892B8093CC03089579
:1037C00080959091CC0398239093CC030895109208
:1037D000CC0308958093AB0308951092AB03089532
:1037E0002091160130911701F9013196205E3F4F6B
:1037F00080E0919191118F5FE217F307D1F708955F
:10380000E0911601F09117018091CD038083E09142
:103810001601F091170180819091CC03892B808350
:103820009091AB03992361F0E0911601F09117019B
:103830008081892B80830E94F01B81111092AB0341
:1038400080911601909117010C948F0F90938B012A
:1038500080938A010895829590E09C01220F331F86
:10386000220F331F2C7C95958795959587958373AB
:10387000282B30E0C901880F991F8A7A3595279542
:103880002575822B08950895CF93DF9300D000D043
:103890000F92CDB7DEB70F900F900F900F900F9053
:1038A000DF91CF910895089508950C94F1108091BF
:1038B000E303843021F11092CF0388E190E020E40B
:1038C0000FB6F894A895809360000FBE2093600017
:1038D00083B7817F846083BF83B7816083BF78941F
:1038E000889583B78E7F83BF0FB6F894A895809193
:1038F0006000886180936000109260000FBE0895A0
:10390000CF930E943C110E9404070E943D11C0E029
:103910008C2F0E947A07811105C0CF5FC031C1F79B
:10392000CF91089581E0FCCF0E9480070C946F1521
:103930001F921FB61F9211248F939F93AF93BF9333
:103940008091CF03811113C08091D0039091D10356
:10395000A091D203B091D3034196A11DB11D8093D4
:10396000D0039093D103A093D203B093D303BF911C
:10397000AF919F918F911F901FBE1F90189582E06D
:1039800084BD93E095BD9AEF97BD80936E00089536
:103990002FB7F8948091D0039091D103A091D203D6
:1039A000B091D3032FBF08952FB7F8946091D0033F
:1039B0007091D1038091D2039091D3032FBF0895CA
:1039C000CF92DF92EF92FF920F931F932FB7F8944D
:1039D0004091D0035091D1036091D2037091D303F1
:1039E0002FBF6A017B01EE24FF248C0130E020E030
:1039F000C016D106E206F30650F0481B590BCA0167
:103A00001F910F91FF90EF90DF90CF90089541505C
:103A10005109F3CF1F921FB61F9211248F939F93CA
:103A2000AF93BF938091D0039091D103A091D20323
:103A3000B091D3030196A11DB11D8093D003909343
:103A4000D103A093D203B093D303BF91AF919F91C1
:103A50008F911F901FBE1F9018950E94A80CF8947C
:103A60002FEF87EA91E6215080409040E1F700C0B7
:103A7000000087E090EBDC018093EC039093ED0372
:103A8000A093EE03B093EF0388E19CE00FB6F894A7
:103A9000A895809360000FBE90936000FFCF90E0E8
:103AA00080E00895089520E1829FC0011124FC0167
:103AB000E70FF11D83E0EE0FFF1F8A95E1F7E60F98
:103AC000F11DE455FF4F84910895282F205C330B9E
:103AD000F901EE0FFF1FE455FF4F85919491089572
:103AE0000E94531D282F30E0A901405C510940324B
:103AF000510510F40C94651D8D3B60F4883A90F5E7
:103B0000853A18F58430F8F4813009F4ACC090E0BF
:103B100080E00895883E90F4803EA8F48F3BB9F78A
:103B20000E946F152FEF80E792E021508040904077
:103B3000E1F700C000000E942D1DE9CF803F38F35F
:103B4000C90190650895C9010895853A29F0863A1A
:103B500031F083E890E4089581E890E4089582E8E4
:103B600090E40895883A09F43FC0893A09F43FC0C7
:103B70008A3A09F43FC08B3A09F43FC08C3A09F401
:103B80003FC08D3A09F43FC08E3A09F43FC08F3AE6
:103B900009F43FC0813B09F43FC0803B09F43FC0BA
:103BA000823B09F43FC0833B09F43FC0843B09F4E6
:103BB0003FC0853B09F43FC0863B09F43FC0873BCB
:103BC00009F43FC0883B09F43FC0893B09F43FC07A
:103BD0008A3B09F43FC08B3B09F43FC08C3B09F49E
:103BE0003FC080E094E4089582EE94E4089589EE65
:103BF00094E408958AEE94E4089585EB94E408959E
:103C000086EB94E4089583EB94E4089584EB94E4C4
:103C1000089587EB94E408958CEC94E408958DEC7A
:103C200094E4089583E895E408958AE895E4089576
:103C300082E995E4089584E995E4089581E296E4A3
:103C4000089583E296E4089584E296E4089585E277
:103C500096E4089586E296E4089587E296E408954E
:103C60008AE296E4089581E090E008958091D60379
:103C700080FF12C060911B0185E0689FB001112494
:103C8000759567957595679560387105A8F5611507
:103C90007105A1F1862F089581FF09C060911B0174
:103CA00085E0689FB001112475956795EDCF60910F
:103CB0001B0182FD0AC08091D7038823D1F0909127
:103CC0001A0160911B01891728F085E0689FB001F7
:103CD0001124DACF869FB001112485E0869F9001E0
:103CE000879F300D1124692F70E0C9010E94D425EF
:103CF000CBCF65E070E0CECF8FE7089581E00895E7
:103D00008091D60380FF0CC06091190170E0759519
:103D10006795759567956115710549F1862F089529
:103D200081FF06C06091190170E075956795F3CF2A
:103D30006091190182FD0BC09091D7039923A1F0E6
:103D40006091180180911901961738F0682F70E082
:103D50006038710500F38FE70895899FC001112431
:103D600070E00E94D425F4CF61E070E0D7CF81E00D
:103D70000895803F31F40E94361E81958093DA03C6
:103D80000895813F19F40E94361EF8CF823F31F426
:103D90000E94361E81958093D9030895833F19F4BC
:103DA0000E94361EF8CF893F29F40E94801E80931E
:103DB000DB0308958A3F21F40E94801E8195F7CF8E
:103DC0008B3F31F40E94801E81958093DC0308951F
:103DD0008C3F19F40E94801EF8CF843F31F480910B
:103DE000D80381608093D8030895853F21F48091A2
:103DF000D8038260F7CF863F21F48091D803846096
:103E0000F1CF873F21F48091D8038860EBCF883FC2
:103E100021F48091D8038061E5CF8D3F31F480910A
:103E2000D60381608093D60308958E3F21F480915C
:103E3000D6038260F7CF8F3FB9F78091D6038460B5
:103E4000F1CF9091D903803F41F48091DA0387FD4F
:103E50001092DA03992371F00895813F29F480913B
:103E6000DA031816ACF3F6CF823F81F497FFF2CF56
:103E70001092D9038091DA039091DB03892B909102
:103E8000DC03892B49F71092D7030895833F19F477
:103E9000191674F3DFCF893F39F48091DB031816CC
:103EA000CCF61092DB03D6CF8A3F29F48091DB0356
:103EB00087FFD0CFF6CF8B3F39F48091DC0387FFAB
:103EC000C9CF1092DC03C6CF8C3F29F48091DC036C
:103ED0001816BCF3BFCF843F31F48091D8038E7F96
:103EE0008093D803B7CF853F21F48091D8038D7F8D
:103EF000F7CF863F21F48091D8038B7FF1CF873FA6
:103F000021F48091D803877FEBCF883F21F4809103
:103F1000D8038F7EE5CF8D3F31F48091D6038E7F1D
:103F20008093D60397CF8E3F21F48091D6038D7F67
:103F3000F7CF8F3F09F08ECF8091D6038B7FF0CFE4
:103F40008091CE0383FF7EC08AE194E00E946505E4
:103F50008091D8031F928F9385E194E09F938F9374
:103F60000E94FE0583E194E00E9465058091D903DB
:103F7000282F082E000C330B3F938F9380E194E0A1
:103F80009F938F930E94FE058EE094E00E9465054A
:103F90008091DA03282F082E000C330B3F938F9368
:103FA0008BE094E09F938F930E94FE0589E094E05C
:103FB0000E9465058091DB03282F082E000C330B2F
:103FC0003F938F9386E094E09F938F930E94FE052A
:103FD00084E094E00E9465058091DC03282F082E80
:103FE000000C330B3F938F9381E094E09F938F936A
:103FF0000E94FE058EEF93E00E9465058091D70335
:104000001F928F938BEF93E09F938F930E94FE05F7
:1040100089EF93E00E9465058091D6031F928F93EC
:1040200086EF93E09F938F930E94FE0583EF93E0CA
:104030000E9465058DB79EB74C960FB6F8949EBF4B
:104040000FBE8DBF88ED93E00E94DB0F0E94C81C5D
:104050009093D5038093D40308951F93CF93DF9358
:104060008091D4039091D5030E94E01CAC01909103
:10407000D70320911C0130E0911106C020911D0151
:104080008AE0289F900111244217530778F020916D
:10409000D903C091DA03D091DB031091DC03211125
:1040A00009C08C2F8D2B812B09F074C0DF91CF912B
:1040B0001F9108959F3F19F09F5F9093D7031216A9
:1040C00024F40E94361E8093D9038091D90387FF80
:1040D00005C00E94361E81958093D9031C1624F4D6
:1040E0000E94361E8093DA038091DA0387FF05C0B1
:1040F0000E94361E81958093DA036091D90366236E
:1041000031F1C091DA03CC2311F1062E000C770BAC
:10411000880B990B0E94DB2423E333E343E35FE343
:104120000E943F250E94A3246093D9036C2FCC0FDB
:10413000770B880B990B0E94DB2423E333E343E3E3
:104140005FE30E943F250E94A3246093DA031D16BB
:1041500024F40E94801E8093DB038091DB0387FFA1
:1041600005C00E94801E81958093DB03111624F404
:104170000E94801E8093DC038091DC0387FF05C0D2
:104180000E94801E81958093DC03DF91CF911F9167
:104190000C94A01F9F3F09F08FCFA0CF85E0E8EDE2
:1041A000F3E0DF011D928A95E9F71092D703109290
:1041B000D60308958DE396E00E9465051F9281E085
:1041C0008F931F9285E08F938FEE95E09F938F934F
:1041D0000E94FE050F900F900F900F900F900F9080
:1041E0000895833009F445C028F4813061F08230AD
:1041F00049F10895853009F46AC008F451C0863049
:1042000009F47CC0089580911D01482F460F552761
:10421000551F4F3F510594F4680F60931D01809125
:104220001D011F928F9388E295E09F938F930E94C8
:10423000FE050F900F900F900F9008958FEF8093D1
:104240001D01EDCF80911C01482F460F5527551FAA
:104250004F3F510554F4680F60931C0180911C017D
:104260001F928F9386E195E0E0CF8FEF80931C0142
:10427000F5CF80911B01482F460F5527551F4F3F03
:10428000510554F4680F60931B0180911B011F922C
:104290008F9383E095E0C9CF8FEF80931B01F5CF1B
:1042A00080911A01482F460F5527551F4F3F510542
:1042B00054F4680F60931A0180911A011F928F9332
:1042C0008EEE94E0B2CF8FEF80931A01F5CF8091FC
:1042D0001901482F460F5527551F4F3F510554F4DC
:1042E000680F60931901809119011F928F9385EDDA
:1042F00094E09BCF8FEF80931901F5CF8091180147
:10430000482F460F5527551F4F3F510554F4680F4E
:1043100060931801809118011F928F938AEB94E0AB
:1043200084CF8FEF80931801F5CF8330C9F128F443
:10433000813061F0823019F10895853009F452C05E
:1043400008F43FC0863009F45EC0089580911D01D5
:10435000681790F4861B80931D0180911D011F92A8
:104360008F938BEA94E09F938F930E94FE050F90AA
:104370000F900F900F90089510921D01EECF809135
:104380001C01681750F4861B80931C0180911C014E
:104390001F928F9389E994E0E6CF10921C01F6CF2B
:1043A00080911B01681750F4861B80931B0180913C
:1043B0001B011F928F9386E894E0D5CF10921B01CA
:1043C000F6CF80911A01681750F4861B80931A016A
:1043D00080911A011F928F9381E794E0C4CF1092CD
:1043E0001A01F6CF80911901681750F4861B80934B
:1043F0001901809119011F928F9388E594E0B3CF42
:1044000010921901F6CF80911801681750F4861B9D
:1044100080931801809118011F928F938DE394E08F
:10442000A2CF10921801F6CFCF93C82F1F928F936F
:1044300082E497E09F938F930E94FE0561E070E015
:1044400080E090E004C0660F771F881F991FCA950F
:10445000D2F70E9473190F900F900F900F90CF9189
:104460000C946F15CF93873208F050C08E3108F04E
:1044700016C1803109F4A8C0F8F4873009F488C067
:1044800048F4863009F472C089E098E00E9465051E
:10449000C0E027C08B3009F464C08E30A9F790913A
:1044A000CE03892F8B7F92FF84608093CE0382FF9F
:1044B00088C088EC99E07CC0863109F4ACC0A0F4D7
:1044C000813111F70E946F15C091150181E0C82755
:1044D000C0931501CC2309F4DFC086E198E00E9467
:1044E00065058C2FCF910895893109F47DC08B31FA
:1044F00059F69091CE03892F8D7F91FF8260809332
:10450000CE0381FF5BC085EE99E052C0883349F14C
:1045100058F4893229F0853319F0873209F0B4CF85
:1045200080E00E94142232C08334D1F328F48A330D
:1045300008F4AACF8953F5CF883409F0A5CF0E949B
:104540006F158BE09AE00E9465052FEF83ED90E3F5
:10455000215080409040E1F700C000000E942D1DD6
:1045600015C08EE697E00E94650510C08091CE03CD
:10457000807F8093CE0387E497E00E9465058CE1FD
:104580009AE00E94650581E08093DE03C1E0A9CF37
:104590008091CE0380FF0AC08EEF99E00E946505EE
:1045A0008091CE03807F8093CE03F0CF82EF99E09D
:1045B0000E9465058091CE038160F5CF87ED99E07B
:1045C000D2CF88EB99E0CFCF9091CE03892F877F10
:1045D00093FF88608093CE0383FF03C08CEA99E049
:1045E000E7CF8FE999E0BFCF80E999E00E946505A8
:1045F0008EE699E00E9465058AE299E00E946505D1
:1046000082E099E00E94650587EC98E00E946505CC
:104610008CE998E0A8CF8EE898E00E9465050E949A
:10462000830F1F928F9384E798E09F938F930E944C
:10463000FE05809114011F928F938DE598E09F9362
:104640008F930E94FE058091D3021F928F938AE47C
:1046500098E09F938F930E94FE05809115011F9211
:104660008F9387E398E09F938F930E94FE050E94AB
:10467000D41C9F938F937F936F9380E298E09F93D6
:104680008F930E94FE058DB79EB746960FB6F8949D
:104690009EBF0FBE8DBF7ACF8BE098E064CF8D5167
:1046A00040CF80E008950C945123CF93C82F809180
:1046B000DE038130E1F0882339F0823009F44FC005
:1046C0001092DE0380E011C0E0911601F091170115
:1046D000808181528230B0F78C2F0E94512381114A
:1046E0001FC08C2F0E9432228170CF910895E091DB
:1046F0001601F091170180818152823068F38C2F6E
:104700000E94532381111BC0C431D9F060F4CB3017
:1047100071F0C031D1F088E397E00E94650513C0C5
:1047200081E090E0E1CFC93261F0C833A1F787E4BE
:1047300097E00E9465058EE397E00E94650581E0A1
:10474000D3CF1092DE0380E0CFCF0E94DA208AE33D
:1047500097E00E94650582E08093DE03F0CFC432CB
:10476000C8F4CE3108F0BEC0CB30E1F040F4C73021
:1047700009F4CFC08CED95E00E94650526C0C331D9
:10478000C1F1C431B9F78091DD03882351F1109252
:10479000DD030AC0CB3409F4BAC0C8F4C93299F3B6
:1047A000C83341F70E94DA208091DD03882309F4A1
:1047B000C7C01F928F9386ED95E09F938F930E94C1
:1047C000FE050F900F900F900F9081E08ECFC135B6
:1047D00009F497C0C23509F48EC0CE3459F66AE0A8
:1047E00091C08BEE95E00E94650581E08093DE0329
:1047F0007CCF85EC95E00E94650583EB95E00E94F7
:10480000650580911D011F928F9380EB95E09F932A
:104810008F930E94FE058EEA95E00E9465058CE963
:1048200095E00E94650580911C011F928F9389E994
:1048300095E09F938F930E94FE0587E995E00E9483
:10484000650588E895E00E94650580911B011F922F
:104850008F9385E895E09F938F930E94FE0583E8F0
:1048600095E00E94650582E795E00E9465058091CC
:104870001A011F928F938FE695E09F938F930E946A
:10488000FE058DE695E00E94650588E595E00E94AD
:104890006505809119011F928F9385E595E09F939F
:1048A0008F930E94FE0583E595E00E9465058CE3E9
:1048B00095E00E946505809118011F928F9389E30E
:1048C00095E09F938F930E94FE0587E395E00E94F9
:1048D00065058DB79EB748960FB6F8949EBF0FBE7C
:1048E0008DBF62CFCE51EC2FF0E0E058FE4F8081BB
:1048F0008093DD0359CF61E08091DD030E94F120B8
:1049000053CF61E08091DD030E9495214DCF6AE095
:10491000F3CF8EE180931D0182E380931C018AE036
:1049200080931B0184E180931A0188E08093190130
:1049300088E2809318018EED95E00E94650534CFE2
:1049400083ED95E019CF0E94AA246894B1110C94CC
:10495000392508950E941E2588F09F5798F0B92F99
:104960009927B751B0F0E1F0660F771F881F991FA4
:104970001AF0BA95C9F714C0B13091F00E943825E9
:10498000B1E008950C943825672F782F8827B85FF9
:1049900039F0B93FCCF3869577956795B395D9F7FC
:1049A0003EF490958095709561957F4F8F4F9F4F06
:1049B0000895E89409C097FB3EF490958095709512
:1049C00061957F4F8F4F9F4F9923A9F0F92F96E95B
:1049D000BB279395F695879577956795B795F111D0
:1049E000F8CFFAF4BB0F11F460FF1BC06F5F7F4F6D
:1049F0008F4F9F4F16C0882311F096E911C077237F
:104A000021F09EE8872F762F05C0662371F096E887
:104A1000862F70E060E02AF09A95660F771F881F56
:104A2000DAF7880F9695879597F9089557FD90586E
:104A3000440F551F59F05F3F71F04795880F97FB62
:104A4000991F61F09F3F79F087950895121613061C
:104A50001406551FF2CF4695F1DF08C0161617064B
:104A60001806991FF1CF8695710561050894089580
:104A7000E894BB2766277727CB0197F908950E9412
:104A800052250C94C3250E94B52538F00E94BC2500
:104A900020F0952311F00C94AC250C94B225112430
:104AA0000C9439250E94162570F3959FC1F3950F3C
:104AB00050E0551F629FF001729FBB27F00DB11DA2
:104AC000639FAA27F00DB11DAA1F649F6627B00D32
:104AD000A11D661F829F2227B00DA11D621F739F1B
:104AE000B00DA11D621F839FA00D611D221F749F29
:104AF0003327A00D611D231F849F600D211D822F70
:104B0000762F6A2F11249F5750409AF0F1F0882396
:104B10004AF0EE0FFF1FBB1F661F771F881F9150C3
:104B20005040A9F79E3F510580F00C94AC250C94A1
:104B300039255F3FE4F3983ED4F3869577956795E2
:104B4000B795F795E7959F5FC1F7FE2B880F911DED
:104B50009695879597F9089597F99F6780E870E093
:104B600060E008959FEF80EC089500240A941616E3
:104B7000170618060906089500240A94121613064B
:104B8000140605060895092E0394000C11F48823D9
:104B900052F0BB0F40F4BF2B11F460FF04C06F5FF5
:104BA0007F4F8F4F9F4F089597FB072E16F4009469
:104BB00007D077FD09D00E94EE2507FC05D03EF412
:104BC000909581959F4F0895709561957F4F0895B9
:104BD000EE0FFF1F0590F491E02D0994AA1BBB1B5B
:104BE00051E107C0AA1FBB1FA617B70710F0A61BED
:104BF000B70B881F991F5A95A9F780959095BC010E
:104C0000CD010895F894FFCF5B0E800ED00E800E7C
:104C1000D00EB00EE80ED00E3C0F490F771277126F
:104C2000B312B31238136E13671267128713671229
:0C4C3000731473141815671267122F1507
:104C3C008E0100000FB2010000FF89071908F4076C
:104C4C00C0078C070101AC032808140A321E6F7AC6
:104C5C000000000000000000000000000000000048
:104C6C00000000000000007F00547C0000000000E9
:104C7C0000000000000000005574607700610063C4
:104C8C00007562787172000000000000005A5B5CD5
:104C9C005D5E0000005F404D3622391F03D2029C3E
:104CAC00027A024102B401CD01E601FF011F0200AC
:0A4CBC0001020304050607080900C1
:0200000400807A
:0403EC00000000000D
:00000001FF
